:100000000C9447050C946F050C946F050C946F05C8
:100010000C946F050C946F050C946F050C946F0590
:100020000C946F050C946F050C946F050C946F0580
:100030000C946F050C946F050C946F050C946F0570
:100040000C94CD150C946F050C943D160C9417165A
:100050000C946F050C946F050C946F050C946F0550
:100060000C946F160C946F0500000000003E5B4F6F
:100070005B3E3E6B4F6B3E1C3E7C3E1C183C7E3C08
:10008000181C577D571C1C5E7F5E1C00183C180016
:10009000FFE7C3E7FF0018241800FFE7DBE7FF30A6
:1000A000483A060E2629792926407F050507407F14
:1000B00005253F5A3CE73C5A7F3E1C1C08081C1C87
:1000C0003E7F14227F22145F5F005F5F06097F017D
:1000D0007F006689956A606060606094A2FFA29468
:1000E00008047E040810207E201008082A1C080836
:1000F0001C2A08081E101010100C1E0C1E0C303884
:100100003E3830060E3E0E06000000000000005F84
:1001100000000007000700147F147F14242A7F2AA0
:100120001223130864623649562050000807030062
:10013000001C2241000041221C002A1C7F1C2A08AE
:10014000083E080800807030000808080808000011
:1001500060600020100804023E5149453E00427F85
:10016000400072494949462141494D331814127FD4
:100170001027454545393C4A494931412111090774
:100180003649494936464949291E000014000000F5
:1001900040340000000814224114141414140041C7
:1001A00022140802015909063E415D594E7C121184
:1001B000127C7F494949363E414141227F414141BC
:1001C0003E7F494949417F090909013E4141517337
:1001D0007F0808087F00417F41002040413F017FA8
:1001E000081422417F404040407F021C027F7F0470
:1001F00008107F3E4141413E7F090909063E4151B9
:10020000215E7F09192946264949493203017F01A8
:10021000033F4040403F1F2040201F3F4038403FA9
:10022000631408146303047804036159494D4300BF
:100230007F4141410204081020004141417F0402F6
:10024000010204404040404000030708002054548D
:1002500078407F284444383844444428384444286B
:100260007F385454541800087E090218A4A49C78BE
:100270007F0804047800447D40002040403D007F1A
:100280001028440000417F40007C047804787C08FA
:100290000404783844444438FC18242418182424CE
:1002A00018FC7C08040408485454542404043F44B3
:1002B000243C4040207C1C2040201C3C4030403CE2
:1002C00044281028444C9090907C4464544C440042
:1002D00008364100000077000000413608000201A6
:1002E0000204023C2623263C1EA1A161123A404092
:1002F000207A38545455592155557941225454780F
:1003000042215554784020545579400C1E527212A7
:100310003955555559395454545939555454580030
:1003200000457C410002457D420001457C407D1234
:1003300011127DF0282528F07C5455450020545496
:100340007C547C0A097F4932494949323A44444441
:100350003A324A4848303A4141217A3A424020787C
:10036000009DA0A07D3D4242423D3D4040403D3C7D
:1003700024FF2424487E4943662B2FFC2F2BFF09A2
:1003800029F620C0887E0903205454794100004496
:100390007D413048484A32384040227A007A0A0A81
:1003A000727D0D19317D2629292F282629292926F4
:1003B00030484D4020380808080808080808382F39
:1003C00010C8ACBA2F102834FA00007B00000814C3
:1003D0002A142222142A14085500550055AA55AA99
:1003E00055AAFF55FF55FF000000FF00101010FF39
:1003F00000141414FF001010FF00FF1010F010F094
:10040000141414FC001414F700FF0000FF00FF1484
:1004100014F404FC141417101F10101F101F1414D0
:10042000141F00101010F0000000001F101010101A
:100430001F10101010F010000000FF10101010100E
:1004400010101010FF10000000FF140000FF00FF4C
:1004500000001F10170000FC04F4141417101714E8
:1004600014F404F40000FF00F7141414141414140A
:10047000F700F7141414171410101F101F1414147D
:10048000F4141010F010F000001F101F0000001FE7
:1004900014000000FC140000F010F01010FF10FF1A
:1004A000141414FF141010101F00000000F010FFAF
:1004B000FFFFFFFFF0F0F0F0F0FFFFFF0000000093
:1004C00000FFFF0F0F0F0F0F3844443844FC4A4A17
:1004D0004A347E02020606027E027E0263554941CC
:1004E000633844443C04407E201E2006027E020203
:1004F00099A5E7A5991C2A492A1C4C7201724C3017
:100500004A4D4D303048784830BC625A463D3E49ED
:100510004949007E0101017E2A2A2A2A2A44445F91
:10052000444440514A444040444A51400000FF0185
:1005300003E080FF000008086B6B08361236243693
:10054000060F090F060000181800000010100030F8
:1005500040FF0101001F01011E00191D1712003C80
:100560003C3C3C0000000000000103070F1F3F7FE0
:100570000080C0E0F0F8FCFEDB40A4A62EAF200017
:10058000A1C8D300408DAED580A800006000000057
:100590000000000000000000000000E0000000007B
:1005A00000000000000000000001E000000000006A
:1005B000000000000000000001F00000000000004A
:1005C0000000000000000003F00000000000000038
:1005D00000000000000007F0000000000000000024
:1005E000000000000007F80000000000000000000C
:1005F000000000000FF800000003C0007E000001B2
:10060000E0007F0FF800000003C000FE000001E0E2
:1006100000FFEFF800000003C000FE000001E00052
:10062000FFFFF800000003C000F00000000F007F93
:10063000FE7FC0000003C000F00000000F003FFE7E
:100640007FF83FF1FBCFFCFEF3BC3DEFE01FFE7FE8
:10065000FF7FFBFFDFFEFEFFBC3DEFE01FC6FFFF9D
:100660007FFBFFDFFEFEFFBC3DEFE00FE3C7FE7840
:100670007BC3DE1EF0FFBC3DEF0007FF87FC787BED
:10068000C3DE1EF0F83C3DEF0001FFFFF0007BC32E
:10069000C01EF0F03C3DEF0001F37FE03FFBC3CF15
:1006A000FEF0F03C3DEF0003E33F807FFBC3DFFE45
:1006B000F0F03C3DEF0007E73C00787BC3DE1EF026
:1006C000F03C3DEF0007FFBE00787BC3DE1EF0F07C
:1006D0003C3DEF0007FFFE00787BC3DE1EF0F03CE0
:1006E0003DEF000FFFFE007FFBFFDFFEF0F03FFD60
:1006F000EFE00FFFFF007FFBFFDFFEF0F03FFDEFBD
:10070000E00FF9FF003E79F9CF9EF0F01F3DE7E0E2
:100710001FF1FF0000000000000000000000001FAB
:1007200080FF007FFFFFFFFFFFFFFFFFFFE01C00D8
:100730007F007FFFFFFFFEB46D888D18E000001F73
:10074000007FFFFFFFFE95AD7DB577E000000F0055
:100750007FFFFFFFFEA5AD9D8D19E0000006007F25
:10076000FFFFFFFEB5ADEDB57EE00000000000012B
:100770008000000000000000000003800000000076
:10078000000000000007C0000000000000000000A2
:1007900007C00000000000000000000FC0000000C3
:1007A0000000000000001FE000000000000000004A
:1007B000001FE00000000000000000003FE000001B
:1007C000000000000000003FF000000000000000FA
:1007D00000007FF0000000000000001FF87FF00024
:1007E0000000000000003FFE7FF00000000000005D
:1007F000003FFF7FF0000000000000001FFFFBE053
:10080000000000000000000FFFF9FFC00000000022
:1008100000000FFFF9FFF800000000000007FFF1E3
:10082000FFFF00000000000003FC73FFFF800000DA
:1008300000000001FE3FFFFF80000000000000FFFD
:100840001E0FFF000000000000007FFE1FFC0000E4
:1008500000000000003FFFFFF80000000000000063
:100860000FDFFFE0000000000000001F19FFC000C4
:100870000000000000003F3CFF00000000000000FE
:10088000007E7CF800000000000000007FFE7C007D
:1008900000000000000000FFFFFC0000000000005E
:1008A0000000FFFFFE0000000000000000FFFFFE50
:1008B0000000000000000001FFEFFE00000000004B
:1008C000000001FFCFFE0000000000000003FF0752
:1008D000FE0000000000000003FC07FE0000000016
:1008E00000000003F003FE00000000000000018093
:1008F00000FE000000000000000000007E0000007C
:10090000000000000000003E0000000000000000A9
:1009100000000C000000000000078000FC00000345
:10092000C0000000078001FC000003C000000007B9
:100930008001FC000003C0000000078001E000000F
:10094000001E000000078001E00000001E007FE3A1
:10095000F79FF9FDE7787BDFC0FFF7FFBFFDFDFFE5
:10096000787BDFC0FFF7FFBFFDFDFF787BDFC0F0C6
:10097000F787BC3DE1FF787BDE00F0F787BC3DE107
:10098000F0787BDE0000F787803DE1E0787BDE00D9
:100990007FF7879FFDE1E0787BDE00FFF787BFFDF3
:1009A000E1E0787BDE00F0F787BC3DE1E0787BDEBC
:1009B00000F0F787BC3DE1E0787BDE00F0F787BC14
:1009C0003DE1E0787BDE00FFF7FFBFFDE1E07FFB6C
:1009D000DFC0FFF7FFBFFDE1E07FFBDFC07CF3F38B
:1009E0009F3DE1E03E7BCFC0000000000000000022
:1009F000000000FFFFFFFFFFFFFFFFFFFFC0FFFF43
:100A0000FFFFFD68DB111A31C0FFFFFFFFFD2B5A0E
:100A1000FB6AEFC0FFFFFFFFFD4B5B3B1A33C0FFDC
:100A2000FFFFFFFD6B5BDB6AFDC0000000002300E1
:100A30002600290000000000240027002A000000F2
:100A40000000250028002B0004040404040404040E
:100A50000202020202020303030303030102040869
:100A60001020408001020408102001020408102018
:100A7000000000080002010000030407000000005D
:100A8000000000002200FF210000D3178C1E11245B
:100A90001FBECFEFD8E0DEBFCDBF11E0A0E0B1E0D8
:100AA000EAE7F4E402C005900D92AC39B107D9F73A
:100AB00023E0ACE9B1E001C01D92A136B207E1F735
:100AC00015E0C6E4D5E004C02197FE010E94F9209C
:100AD000C534D107C9F70E9456180C9430220C94E3
:100AE00000000895833081F028F4813099F082303D
:100AF000A9F008958730A9F08830C9F08430B1F4A6
:100B0000809180008F7D03C0809180008F778093DB
:100B10008000089584B58F7784BD089584B58F7D56
:100B2000FBCF8091B0008F778093B00008958091C3
:100B3000B0008F7DF9CF1F93CF93DF93282F30E044
:100B4000F901E059F54F8491F901E45AF54FD49138
:100B5000F901E85BF54FC491CC23A9F0162F811160
:100B60000E947205EC2FF0E0EE0FFF1FE25CF54FE4
:100B7000A591B4918FB7F894EC91111108C0D0955C
:100B8000DE23DC938FBFDF91CF911F910895DE2B81
:100B9000F8CFCF93DF9390E0FC01E45AF54F249116
:100BA000885B954FFC0184918823D1F090E0880FF9
:100BB000991FFC01EC5CF54FA591B491FC01E25C3E
:100BC000F54FC591D49161110EC09FB7F8948C91E7
:100BD000E22FE0958E238C932881E223E8839FBF48
:100BE000DF91CF9108958FB7F894EC91E22BEC93BD
:100BF0008FBFF6CF3FB7F89480916C0290916D0251
:100C0000A0916E02B0916F0226B5A89B05C02F3F40
:100C100019F00196A11DB11D3FBFBA2FA92F982F22
:100C20008827BC01CD01620F711D811D911D42E01D
:100C3000660F771F881F991F4A95D1F708958F92E5
:100C40009F92AF92BF92CF92DF92EF92FF924B01B1
:100C50005C010E94FA056B017C010E94FA056C1987
:100C60007D098E099F09683E734081059105A8F3AF
:100C700021E0821A9108A108B10888EEC80E83E02D
:100C8000D81EE11CF11C81149104A104B10429F7C0
:100C9000FF90EF90DF90CF90BF90AF909F908F909C
:100CA000089508950895AF92BF92CF92DF92EF9288
:100CB000FF920F931F93CF93DF936C017B018B0106
:100CC000040F151FEB015E01AE18BF08C017D10756
:100CD00059F06991D601ED91FC910190F081E02DE0
:100CE000C6010995892B79F7C501DF91CF911F9135
:100CF0000F91FF90EF90DF90CF90BF90AF9008954D
:100D0000FC01538D448D252F30E0842F90E0821B11
:100D1000930B541710F0CF96089501970895FC0196
:100D2000918D828D981761F0A28DAE0FBF2FB11DEE
:100D30005D968C91928D9F5F9F73928F90E0089546
:100D40008FEF9FEF0895FC01918D828D981731F000
:100D5000828DE80FF11D858D90E008958FEF9FEF54
:100D60000895FC01918D228D892F90E0805C9F4F2A
:100D7000821B91098F739927089584E792E00E945E
:100D8000B10621E0892B09F420E0822F089580E04C
:100D900090E0892B29F00E94BD0681110C9400007F
:100DA0000895FC01A48DA80FB92FB11DA35ABF4F00
:100DB0002C91848D90E001968F739927848FA6895A
:100DC000B7892C93A089B1898C91837080648C93AE
:100DD000938D848D981306C00288F389E02D80815D
:100DE0008F7D80830895EF92FF920F931F93CF938F
:100DF000DF93EC0181E0888F9B8D8C8D98131AC056
:100E0000E889F989808185FF15C09FB7F894EE893C
:100E1000FF896083E889F989808183708064808399
:100E20009FBF81E090E0DF91CF911F910F91FF90E4
:100E3000EF900895F62E0B8D10E00F5F1F4F0F738C
:100E40001127E02E8C8D8E110CC00FB607FCFACF47
:100E5000E889F989808185FFF5CFCE010E94D1060E
:100E6000F1CFEB8DEC0FFD2FF11DE35AFF4FF08218
:100E70009FB7F8940B8FEA89FB8980818062CFCF7E
:100E8000CF93DF93EC01888D8823B9F0AA89BB89C1
:100E9000E889F9898C9185FD03C0808186FD0DC0AC
:100EA0000FB607FCF7CF8C9185FFF2CF808185FFCD
:100EB000EDCFCE010E94D106E9CFDF91CF91089509
:100EC000EF92FF920F931F93CF93DF93EC01EC808F
:100ED000FD806E157F050CF070C057FF04C0240F15
:100EE000351F50E040E08E819F81FA01E20FF31F31
:100EF0008E179F071CF49C01241B350B121613063A
:100F00000CF05BC0922F842F8695869586958E9DDA
:100F1000D0018F9DB00D11246A0F7B1FAF8DB8A13A
:100F2000A60FB71F477049F188E0841B482F682F30
:100F300070E0FB01E059FA4FE491281708F063C014
:100F4000621B71092FEF30E002C0359527956A9535
:100F5000E2F7E2230130110539F0B0F1023011055A
:100F600061F58C91E82702C08C91E82BEC939417E3
:100F700020F12C813D81A20FB31FE92FE41BE83043
:100F800078F00230110521F58E2F9C9190959C935D
:100F90002C813D81A20FB31F88508830B0F7E770D5
:100FA000EE2359F0F0E0E859FA4FE49101301105D1
:100FB000F9F010F10230110519F1DF91CF911F9175
:100FC0000F91FF90EF900895E0958C91E823CECF9C
:100FD00081E00115110509F480E081959E2F8C9325
:100FE0002C813D81A20FB31F98509830C0F7D7CF06
:100FF0008C91E82BEC93E1CFE0958C91E823FACF2C
:101000008C91E827F7CF0130110509F4ADCFE0F25C
:101010000230110509F4A5CFAE0DBF1DAECF0F9361
:101020001F93CF93DF9377FF04C0260F371F70E025
:1010300060E0DC011496CD91DC91FB01E20FF31F1F
:10104000CE17DF071CF49E01261B370B1216130662
:101050004CF5FA0157FD3796A3E0F595E795AA956B
:10106000E1F7EC9FD001ED9FB00DFC9FB00D112476
:101070006A0F7B1FDC015F96ED91FC91E60FF71F75
:101080004770552781E090E001C0880F4A95EAF744
:10109000482F0130110559F0A8F02E0F3F1F0230E4
:1010A0001105E1F0DF91CF911F910F9108952E0F5F
:1010B0003F1FE217F307B1F38191DF011197842BF2
:1010C0008C93F7CF80952E0F3F1FE217F30751F354
:1010D0009191DF01119798239C93F7CFE217F307C3
:1010E00009F38191DF01119784278C93F7CF0F9338
:1010F0001F93FA01DC0156964C9156974230E9F065
:101100004330A1F1413061F514964D915C91DA01C3
:10111000AE1BBF0BFD01E21BF30B77FD0BC0DC0127
:1011200016964D915C916417750724F4AB01BF01CD
:101130000E940F081F910F91089514964D915C9194
:10114000DA01A61BB70BBD0161507109DC011696CF
:101150004D915C91DA01AE1BBF0BFD01E21BF30B5D
:1011600077FDE8CFAF010E946007E4CF16964D915E
:101170005C91DA01A61BB70BBD0161507109CDCF9F
:101180000F931F93FA01DC0156964C91569742300B
:10119000A9F0433091F1413019F514964D915C91CD
:1011A000DA01AE1BBF0BFD013197F7FD04C0AB01A7
:1011B000BF010E9460071F910F91089514964D91F1
:1011C0005C91DA01A61BB70BBD01DC0116964D91AF
:1011D0005C91DA01AE1BBF0BFD013197621B730BF3
:1011E000F7FDE9CFDC0116964D915C91E417F50708
:1011F00014F7AF010E940F08DECF16964D915C9157
:10120000DA01A61BB70BBD01621B730BCECFFC012D
:1012100077FD64C080859185681779070CF05EC002
:1012200057FD5CC082859385481759070CF056C05E
:1012300086898230B1F0833029F1813041F4848194
:101240009581841B950BAB01BC0161507109213064
:10125000310509F108F443C02230310509F463C0B7
:10126000089584819581DC01A61BB70BBD016150F7
:10127000710986819781DC01A41BB50BAD0141503A
:101280005109E5CF86819781861B970BBA01AC0186
:1012900041505109DCCFCA0157FD0796A3E095954F
:1012A0008795AA95E1F7A481B5818A9F90018B9FCC
:1012B000300D9A9F300D1124620F731F078CF0A11F
:1012C000E02DE60FF71F4770552721E030E001C001
:1012D000220F4A95EAF78081822B80830895CA0104
:1012E00057FD079633E0959587953A95E1F7A481E8
:1012F000B5818A9F90018B9F300D9A9F300D1124EC
:10130000620F731F078CF0A1E02DE60FF71F4770E7
:10131000552781E090E001C0880F4A95EAF7809553
:1013200090818923DACFCA0157FD079623E095956E
:1013300087952A95E1F7A481B5818A9F90018B9FBB
:10134000300D9A9F300D1124620F731F078CF0A18E
:10135000E02DE60FF71F4770552721E030E001C070
:10136000220F4A95EAF780818227B7CF08958EBD74
:1013700000000DB407FEFDCF8EB508958CBD9DBD58
:1013800008950895FC016370668B848195812681A0
:101390003781613039F0633029F091878087338756
:1013A00022870895318720879387828708952F9217
:1013B0003F924F925F926F927F928F929F92AF92E5
:1013C000BF92CF92DF92EF92FF920F931F93CF9332
:1013D000DF93CDB7DEB76A970FB6F894DEBF0FBEC6
:1013E000CDBF9A8F898F7A8369834A01D22E18875D
:1013F0000F833701BC2CDC0159962D913C915A97F3
:101400002115310509F015C118968D919C911997F8
:10141000681779070CF0D7C11A968D919C914817DF
:1014200059070CF0D0C14C2C512CB6E0CB9E600D6E
:10143000711D11247C876B87161617060CF0C3C12B
:10144000EA2DF0E0FA87E98793E0EE0FFF1F9A9507
:10145000E1F7F88BEF87CF01840F951F1816190657
:101460000CF0B1C1A98DBA8D58968C91811104C030
:10147000BFEABD1508F4D394A98DBA8DED91FC9106
:1014800011970284F385E02DCD010995B5E0DB9E2F
:10149000C0011124E981FA81FC83EB83312C212CDA
:1014A0009C0128593F4F388F2F8B4A2D50E05E8B7F
:1014B0004D8BEF89F88DE20DF31D44919E828D8254
:1014C000D12CC12C69817A81620D731D7A8B698B55
:1014D000842F90E09C8B8B8BE98DFA8DA081B1815C
:1014E00040FF82C0F1E0BF126FC0AF126DC01C960A
:1014F000ED91FC912F813885A4014C0D5D1D69890A
:101500007A89898D9A8D0995EB89FC89F595E795FE
:101510004E2F5FEFC51AD50A6D817E818D899E8918
:10152000680F791F7E836D8398E0C916D10481F618
:10153000AFEF2A1A3A0AEB81FC81E40DF51DFC831A
:10154000EB83F5E02F16310409F0B3CF2F813885F6
:1015500026153705B9F0A98DBA8DED91FC91B1E052
:10156000BB1257C0AB1255C069817A816B5F7F4F48
:101570000088F189E02D830128E030E0A401898D05
:101580009A8D0995A98DBA8DED91FC9111970688D8
:10159000F789E02DCD016A960FB6F894DEBF0FBE35
:1015A000CDBFDF91CF911F910F91FF90EF90DF9012
:1015B000CF90BF90AF909F908F907F906F905F90F3
:1015C0004F903F902F9009941E96ED91FC91EF80E3
:1015D000F88409851A8592014D815E816B817C8139
:1015E000898D9A8D099590CF2F81388526153705DD
:1015F00009F48ACF31E0B31207C0A31205C01C96CC
:10160000ED91FC91930178CF1E96ED91FC917301C1
:10161000E0CF6B857C85641975090684F785E02D1C
:1016200073010F8518899201A401898D9A8D0995FE
:10163000A9CFF90134969491329745915491D91AD2
:10164000B7E0DB9E400D511D1124F9012591349125
:101650003C8B2B8BFA0125903490FA0132967490D2
:1016600031963491398B329664903196449041E0B2
:101670004C1518F04A1508F07FC0662D062C000C9A
:10168000770B7C836B83842D042C000C990B9E8339
:101690008D83A98DBA8DED91FC9111970284F3850C
:1016A000E02DCD010995512CD12CC12CEA2DF0E073
:1016B000FA87E9872B2D30E03C872B87A401440D66
:1016C000511D47FC5A95588F4F8B69817A81660D61
:1016D000711D67FC7A957E876D877989C71608F03A
:1016E00051CF2C2D30E04D815E81420F531FA985D3
:1016F000BA854A9FC0014B9F900D5A9F900D1124AF
:10170000FC01E80DF91DF88BEF87852D612C4F89C1
:10171000588D420F531F5E8B4D8B671408F050C0DD
:1017200044244394480E877041F4C1010196EB892B
:10173000FC89E20DF31DD4901C01D7FE19C0A98DC0
:10174000BA8DED91FC91662D70E0B1E0BB1219C02D
:10175000AB1217C02D853E85620F731F0484F5857B
:10176000E02D2F8138854D895E89898D9A8D099567
:10177000DD0C6394842DD1CF1E821D821C821B82BE
:1017800088CF4B815C81640F751FAB85BC856A9FD8
:10179000C0016B9F900D7A9F900D112469817A8111
:1017A000680F791F0684F785E02DEF80F88409859E
:1017B0001A859D014F855889898D9A8D0995D8CFB5
:1017C000570CC3948ACF6A960FB6F894DEBF0FBE4B
:1017D000CDBFDF91CF911F910F91FF90EF90DF90E0
:1017E000CF90BF90AF909F908F907F906F905F90C1
:1017F0004F903F902F9008958F929F92AF92CF92EB
:10180000EF92FF920F931F93CF93DF93EC01262F5C
:10181000898D9A8D009709F051C06A30D1F41D86E8
:101820001C868D8948E0849F900111248E859F85B8
:10183000820F931F9F878E8781E090E0DF91CF9189
:101840001F910F91FF90EF90CF90AF909F908F904E
:1018500008956D3089F3CC88AD888F898823C1F0D5
:101860008C859D8536E0C39E800D911D1124488591
:1018700059854817590764F44E855F851D861C8677
:1018800038E0A39EC0011124840F951F9F878E8787
:10189000EA88FB88088919894E855F856C857D8576
:1018A000CE010E94D7092C898C859D8546E0249F16
:1018B000800D911D11249D878C87BECF6A3069F4FD
:1018C0001D861C86FC013896E4912D898E859F85A6
:1018D000E29F800D911D1124ADCF6D3009F4ACCF86
:1018E000FC0134963491631708F4A6CF3296E49144
:1018F000E61708F4A1CFFC01329685909490462F0C
:10190000431B342F47E0349F800C911C1124F401B9
:10191000329634913196E4913323A9F1EE2399F173
:10192000CC88F4013596E491AD884F89442301F1C8
:101930000E2E000CFF0BE30FF11DCE9EA001CF9EDB
:10194000500D11246C857D85460F571F688579855C
:10195000641775076CF44E855F851D861C86FC0137
:101960003896E491AE9E400D511D11245F874E873D
:10197000EA88FB88088919894E855F856C857D8595
:10198000CE010E94D709F4013496E4912C898C850C
:101990009D85E29F800D911D11248DCF6F927F92C6
:1019A0008F929F92AF92BF92CF92DF92EF92FF926F
:1019B0000F931F93CF93DF93EC016B015A01390111
:1019C0004801E881F9810284F385E02D0995E881D9
:1019D000F9810288F389E02D87019301A501B60101
:1019E000CE010995A501480D591D41505109E881C5
:1019F000F9810288F389E02D9301B601CE010995A2
:101A0000E881F9810088F189E02D9401A501B601F2
:101A1000CE010995C60CD71CB60161507109E88149
:101A2000F9810088F189E02D9401A501CE01099585
:101A3000E881F9810688F789E02DCE01DF91CF9109
:101A40001F910F91FF90EF90DF90CF90BF90AF90DC
:101A50009F908F907F906F9009946F927F928F925A
:101A60009F92AF92BF92CF92DF92EF92FF920F932D
:101A70001F93CF93DF935C01EB016A0149013801A9
:101A80008701DC01ED91FC916217730719F564166B
:101A900075062CF0962D872D3A01C92ED82E960169
:101AA000261937092F5F3F4F048CF58DE02DA301D8
:101AB000BE01C5010995DF91CF911F910F91FF9054
:101AC000EF90DF90CF90BF90AF909F908F907F90DE
:101AD0006F9008954615570591F42617370724F09F
:101AE000892D4B01C22FD82F9E01281939092F5F4C
:101AF0003F4F068CF78DE02DA601B401DACF0284AA
:101B0000F385E02D0995D501ED91FC910488F589C7
:101B1000E02D83019401A601BE01C5010995D501FF
:101B2000ED91FC910688F789E02DC501DF91CF91F9
:101B30001F910F91FF90EF90DF90CF90BF90AF90EB
:101B40009F908F907F906F900994EF92FF920F93E8
:101B50001F93DC011A960D911C911B9718962D91DD
:101B60003C911997ED91FC9100A0F1A1E02D7B0132
:101B700050E040E070E060E009951F910F91FF9008
:101B8000EF9008954F925F926F927F928F929F9203
:101B9000AF92BF92CF92DF92EF92FF920F931F937B
:101BA000CF93DF936C012B015A0139014801DC010D
:101BB000ED91FC910284F385E02D0995E201640C1E
:101BC000751CD601ED91FC91C615D7055CF4008813
:101BD000F189E02D87019401A501BE01C601099597
:101BE0002196EFCF0688F789E02DC601DF91CF91CE
:101BF0001F910F91FF90EF90DF90CF90BF90AF902B
:101C00009F908F907F906F905F904F9009948F92EC
:101C10009F92AF92BF92CF92DF92EF92FF920F937B
:101C20001F93CF93DF93EC015B014A016901E881C7
:101C3000F9810284F385E02D099595012C0D3D1D58
:101C400021503109E881F9810488F589E02D780176
:101C50008401A401B501CE010995E881F9810688C6
:101C6000F789E02DCE01DF91CF911F910F91FF9069
:101C7000EF90DF90CF90BF90AF909F908F9009949E
:101C80008F929F92AF92BF92CF92DF92EF92FF928C
:101C90000F931F93CF93DF93EC015B014A0169011E
:101CA0007801E881F9810284F385E02D0995C80C5B
:101CB000D91C860101501109E881F9810488F58950
:101CC000E02D9501A401B501CE010995E881F981C6
:101CD0000688F789E02DCE01DF91CF911F910F91FA
:101CE000FF90EF90DF90CF90BF90AF909F908F903C
:101CF0000994EF92FF920F931F93DC01ED91FC91F9
:101D000000A0F1A1E02D09951F910F91FF90EF9098
:101D100008950F931F93DC01ED91FC91068CF78DD4
:101D2000E02D09951F910F9108950F931F93DC01EA
:101D3000ED91FC91048CF58DE02D09951F910F918B
:101D40000895DC01ED91FC910084F185E02D09946A
:101D50003F924F925F926F927F928F929F92AF923B
:101D6000BF92CF92DF92EF92FF920F931F93CF9388
:101D7000DF935C017B014A016901390187E0680E4C
:101D8000711C93E0759467949A95E1F72B01400ECE
:101D9000511E10E000E0312CD0E0C0E0CE01877091
:101DA0009927330C892B59F4FE0183E0F595E795CB
:101DB0008A95E1F7E00FF11FE80DF91D349037FE29
:101DC0000AC021E030E0A701B5016C0F7D1F8DE155
:101DD00093E00E94A10E2196CC16DD06F9F68FEF56
:101DE000E81AF80A060D171DE414F504A9F6DF91A8
:101DF000CF911F910F91FF90EF90DF90CF90BF9008
:101E0000AF909F908F907F906F905F904F903F909A
:101E100008952F923F924F925F926F927F928F928E
:101E20009F92AF92BF92CF92DF92EF92FF920F9369
:101E30001F93CF93DF9300D000D000D0CDB7DEB793
:101E40003C016A013E832D83FC82EB825801A41A77
:101E5000B50AB7FE03C0B194A194B1088D809E80ED
:101E6000861A970A97FE03C09194819491088A1468
:101E70009B045CF0902F812F0D811E819D838E83AA
:101E80009C2D8D2D6B01692F782F0C151D055CF095
:101E90009D818E817E836D83692F782F902F812F76
:101EA0008601C92ED82E1601201A310A2B012D8148
:101EB0003E81421A530A57FE03C05194419451087F
:101EC000710137FE03C03FEFE31AF30AF594E7947C
:101ED0008D819E81861797075CF5A1E0B0E0BA83FB
:101EE000A983C016D1064CF1D301ED91FC91048475
:101EF000F585E02D2B813C81A8016D817E818A14BE
:101F00009B041CF04D815E81B801C3010995E41862
:101F1000F508F7FE0AC02D813E8189819A81280F3C
:101F2000391F3E832D83E20CF31C0F5F1F4FD9CF67
:101F30002FEF3FEF3A832983D4CF26960FB6F8943C
:101F4000DEBF0FBECDBFDF91CF911F910F91FF90EC
:101F5000EF90DF90CF90BF90AF909F908F907F9049
:101F60006F905F904F903F902F900895089520912B
:101F7000DD01260F3327331F21323105ECF4209188
:101F80002B02FC0190E080E0243069F082E00895AB
:101F9000A091DD012191AC0143545E4FA40FB52FF8
:101FA000B11D2C930196861798F38091DD01680F7F
:101FB0006093DD0180E0089581E0089510922B0286
:101FC00081E080932A021092250261E082E10E9462
:101FD0009B0561E083E10E949B05E9EBF0E08081D5
:101FE0008E7F808380818D7F808388E48093B8009A
:101FF00085E48093BC000895CF93DF9391E09093A4
:10200000BC018823B9F0C091B800D091BA0080918A
:10201000BC008A7B8093BC0060E082E10E949B054B
:1020200060E083E10E949B050E94DE0FD093BA001E
:10203000C093B800DF91CF910895E0913202809172
:102040003102E81730F4F0E0ED5CFD4F808190E064
:1020500008958FEF9FEF08959091320280913102A1
:102060002FEF3FEF981748F4E92FF0E0ED5CFD4FBC
:10207000208130E09F5F90933202C90108958091E2
:10208000310290913202891B990B0895CF92DF9211
:10209000EF92FF920F931F93CF93DF937C01CB01BD
:1020A0008A0120917302222389F0EB016B01C40E97
:1020B000D51ECC15DD0569F06991D701ED91FC9134
:1020C0000190F081E02DC7010995F3CF642F0E94A4
:1020D000B70FC801DF91CF911F910F91FF90EF9043
:1020E000DF90CF900895CF93DF931F92CDB7DEB7E7
:1020F0006983209173022223F9F02091700220322B
:1021000058F021E030E0FC013383228390E080E04E
:102110000F90DF91CF91089580917102E82FF0E048
:10212000E456FE4F998190838F5F80937102809374
:10213000700281E090E0ECCF61E0CE0101960E9458
:10214000B70FF7CFCF92DF92EF92FF920F931F93CB
:10215000CF93DF93D091700281E0D13208F09CC020
:10216000C09172020E94FA056B017C0180912B02E2
:1021700081116CC082E080932B0281E080932A025F
:102180008FEF8093290210922802D0932702ACE9A6
:10219000B1E0E5E0F2E080E0D8138DC010922602B5
:1021A00080912602CC0FC82BC09326028091250275
:1021B000813009F084C0109225020E94FA056B015B
:1021C0007C01809126028093BB0080912D0290912A
:1021D0002E02A0912F02B0913002892B8A2B8B2BDB
:1021E000A1F00E94FA0500912D0210912E0220917B
:1021F0002F02309130026C197D098E099F09061754
:1022000017072807390708F442C08091BC0083FDF6
:10221000D8CF85EC8093BC000E94FA056B017C014D
:1022200080912B02823009F44CC0809129028F3FAB
:1022300009F469C080912902803209F466C0809156
:102240002902803309F463C084E026C080912D0206
:1022500090912E02A0912F02B0913002892B8A2BEF
:102260008B2B09F483CF0E94FA0500912D02109167
:102270002E0220912F02309130026C197D098E09B7
:102280009F09061717072807390708F06FCF8091B5
:102290002C020E94FC0F85E01092710210927002D5
:1022A00010927302DF91CF911F910F91FF90EF90E9
:1022B000DF90CF9008959D9191938F5F6DCF85EEC4
:1022C000A9CF80912D0290912E02A0912F02B09162
:1022D0003002892B8A2B8B2B09F4A2CF0E94FA059E
:1022E00000912D0210912E0220912F023091300288
:1022F0006C197D098E099F090617170728073907EA
:1023000008F08ECFC4CF80E0C7CF82E0C5CF83E096
:10231000C3CFEF92FF920F931F93CF93DF937C0174
:10232000C62F80913A0390913B03009709F459C05E
:1023300020913E0331E03093730220937202109299
:10234000710210927002DC01ED91FC910190F0811C
:10235000E02D60E009958701EE24E394F12CD1E0B3
:10236000C15080913A0390913B03CF3F91F1B0E28D
:10237000EB16F104D8F00E94A21080913A039091DC
:102380003B0320913E03D09373022093720210927C
:10239000710210927002DC01ED91FC910190F081CC
:1023A000E02D60E00995EE24E394F12C80913A034E
:1023B00090913B03F8016491DC01ED91FC91019057
:1023C000F081E02D0995BFEFEB1AFB0A0F5F1F4F5D
:1023D000C7CFDF91CF911F910F91FF90EF900C9499
:1023E000A210E0914A03F0914B0390818091500339
:1023F0008095892380838701C15008F438C0F80193
:1024000084912091380330913903232B29F00E94C5
:10241000B7090F5F1F4FF0CF28E030E040E8E091B0
:102420004603F091470390914E03582F5423D9F05F
:102430005081952B9083E0914803F091490390815E
:1024400050914F03952B9083E0914803F0914903FD
:10245000508190914F0390959523908346952150FC
:102460003109E9F6D6CF508190959523E3CFDF91DE
:10247000CF911F910F91FF90EF9008951F93CF93ED
:10248000DF93EC018D8D9E8D009721F1162F29A1F0
:1024900031E0309373022093720210927102109215
:1024A0007002DC01ED91FC910190F081E02D60E083
:1024B00009958D8D9E8DDC01ED91FC910190F0814F
:1024C000E02D612F09958D8D9E8DDF91CF911F910C
:1024D0000C94A210ADA5BEA59C918BA980958923D3
:1024E0008C938B8D9C8D892B31F0862FDF91CF9132
:1024F0001F910C94B70928E030E080E8A9A5BAA59F
:1025000099A9462F4823C1F04C91942B9C93ABA5DD
:10251000BCA59C914AA9942B9C93ABA5BCA54C91BE
:102520009AA9909594239C9386952150310931F76F
:10253000DF91CF911F9108954C9190959423E6CF10
:10254000DF92EF92FF920F931F93CF93DF938091CF
:102550003A0390913B03892B09F498C020915203D0
:1025600030915303409154035091550360E074E25D
:1025700084EF90E00E94D720205131094109510990
:1025800056954795379527952093B80065E084E8E0
:102590009AE00E9489116091210361508DE193E0DE
:1025A0000E943E122091230330912403C901079613
:1025B00097FD079633E0959587953A95E1F7209139
:1025C000210330912203829F8001839F100D929FEF
:1025D000100D1124C0913C03D0913D0380913A032A
:1025E00090913B030C0F1D1F009709F48FC02091A1
:1025F0003E0331E030937302209372021092710215
:1026000010927002DC01ED91FC910190F081E02DBF
:1026100060E40995EE24E394F12CDD24D3948091B9
:102620003A0390913B030C171D0709F446C0B0E232
:10263000EB16F104D8F00E94A21080913A03909119
:102640003B0320913E03D0927302209372021092BA
:10265000710210927002DC01ED91FC910190F08109
:10266000E02D60E40995EE24E394F12C80913A0387
:1026700090913B036991DC01ED91FC910190F08117
:10268000E02D0995BFEFEB1AFB0AC9CF8091380303
:1026900090913903892B31F080915B0390915C0319
:1026A0000E94BE09E0914C03F0914D03908180910E
:1026B000510380958923808369CF0E94A210809165
:1026C0003A0390913B03892B09F461C02091560392
:1026D00030915703409158035091590360E074E2E0
:1026E00084EF90E00E94D72020513109410951091F
:1026F00056954795379527952093B800DF91CF9150
:102700001F910F91FF90EF90DF900895E0914A03A1
:10271000F0914B03808190915003892B80830C179B
:102720001D0769F289912091380330913903232BD9
:1027300019F00E94B709F3CF28E030E040E8E091BB
:102740004603F091470390914E03582F5423D9F03C
:102750005081952B9083E0914803F091490390813B
:1027600050914F03952B9083E0914803F0914903DA
:10277000508190914F0390959523908346952150D9
:102780003109E9F6CCCF508190959523E3CFE091C4
:102790004C03F0914D03808190915103892B8083EC
:1027A000ADCF1F93CF93DF93EC01162F8D8D9E8DB0
:1027B000892BB1F12DA93EA94FA958AD60E074E273
:1027C00084EF90E00E94D72020513109410951093E
:1027D00056954795379527952093B80066EA1111CD
:1027E00067EACE010E943E128D8D9E8D892B41F1AC
:1027F00029AD3AAD4BAD5CAD60E074E284EF90E0A2
:102800000E94D72020513109410951095695479519
:10281000379527952093B800DF91CF911F910895A8
:102820008B8D9C8D892B21F08EAD9FAD0E94BE09B2
:10283000EFA5F8A990818CA9809589238083CECFBC
:10284000EFA5F8A980819CA9892B8083E5CF90E032
:1028500080E008952091230330912403C901079655
:1028600097FD079623E0959587952A95E1F72091A6
:10287000210330912203829FA001839F500D929FDC
:10288000500D112470E060E080913C0390913D0375
:102890000C9429220E942422FB0101900020E9F7D8
:1028A0003197AF01461B570BDC01ED91FC91028083
:1028B000F381E02D09948F929F92AF92BF92EF9295
:1028C000FF920F931F93CF93DF93CDB7DEB7A197FE
:1028D0000FB6F894DEBF0FBECDBF7C01FA01CB016D
:1028E00019A2223008F42AE08E010F5D1F4F822EBC
:1028F000912CB12CA12CBF01A50194010E94D720DD
:10290000F901CA016A300CF5605DD8016E938D0142
:10291000232B242B252B79F790E080E0109721F0D2
:10292000BD01C7010E944C14A1960FB6F894DEBFFA
:102930000FBECDBFDF91CF911F910F91FF90EF9010
:10294000BF90AF909F908F900895695CDECF2F92DB
:102950003F924F925F926F927F928F929F92AF922F
:10296000BF92CF92DF92EF92FF921F93CF93DF93AC
:10297000EC016A017B01722EAB019601CB01B6011D
:102980000E94D22066E571E0811126C04601570100
:10299000E894B7F82FEF3FEF4FE75FE7C501B401C9
:1029A0000E94D22081110CC02FEF3FEF4FE75FE76D
:1029B000C501B4010E94081F6AE571E0181664F0B1
:1029C0002FEF3FEF4FE75FE4C701B6010E946020A1
:1029D0001816B4F46EE571E0CE01DF91CF911F912E
:1029E000FF90EF90DF90CF90BF90AF909F908F902F
:1029F0007F906F905F904F903F902F900C944C146D
:102A00002FEF3FEF4FE75FECC701B6010E94081FB1
:102A100087FDE0CF20E030E0A901C701B6010E94A8
:102A2000081F312C212C87FF0DC0E881F98101900E
:102A3000F081E02D6DE2CE0109951C01F7FAF094CA
:102A4000F7F8F09410E060E070E080E09FE371162A
:102A500041F020E030E040E251E40E940D1F1F5F92
:102A6000F6CFA70196010E949C1E2B013C010E94FB
:102A70007F1F4B015C012AE0BC01A401CE010E9432
:102A80005B147C01E20CF31C1123E1F1C501B401DC
:102A90000E94AE1F9B01AC01C301B2010E949B1EAC
:102AA0004B015C01E881F9810190F081E02D6EE23B
:102AB000CE010995E80EF91E115020F120E030E01A
:102AC00040E251E4C501B4010E9465202B013C01A4
:102AD0000E947F1F4B01B12CA12C2AE0B501A4015B
:102AE000CE010E945B14E80EF91EC501B4010E94DC
:102AF000AE1F9B01AC01C301B2010E949B1E4B01A2
:102B00005C01DACFC701DF91CF911F91FF90EF9069
:102B1000DF90CF90BF90AF909F908F907F906F90FD
:102B20005F904F903F902F90089585ED8093BC006B
:102B300080912D0290912E02A0912F02B09130022F
:102B40000796A11DB11D23E0B695A795979587958A
:102B50002A95D1F72091BC0024FD03C010922B02CE
:102B6000089540912D0250912E0260912F02709194
:102B70003002452B462B472B69F30097A105B10581
:102B800041F02AE22A95F1F700C00197A109B109A5
:102B9000E1CF80912C020C94FC0F1F920F920FB684
:102BA0000F9211242F933F938F939F93AF93BF93D3
:102BB0008091680290916902A0916A02B0916B02C3
:102BC0003091670223E0230F2D3758F50196A11DA0
:102BD000B11D209367028093680290936902A093CD
:102BE0006A02B0936B0280916C0290916D02A09189
:102BF0006E02B0916F020196A11DB11D80936C020F
:102C000090936D02A0936E02B0936F02BF91AF914B
:102C10009F918F913F912F910F900FBE0F901F901A
:102C2000189526E8230F0296A11DB11DD2CF1F9241
:102C30000F920FB60F9211242F933F934F935F93F0
:102C40006F937F938F939F93AF93BF93EF93FF9374
:102C500084E792E00E94D106FF91EF91BF91AF917E
:102C60009F918F917F916F915F914F913F912F91A4
:102C70000F900FBE0F901F9018951F920F920FB6D6
:102C80000F9211242F938F939F93EF93FF93E091D3
:102C90008402F09185028081E0918A02F0918B029A
:102CA00082FD1BC0908180918D028F5F8F73209178
:102CB0008E02821741F0E0918D02F0E0EC58FD4F5A
:102CC000958F80938D02FF91EF919F918F912F911E
:102CD0000F900FBE0F901F9018958081F4CF1F9218
:102CE0000F920FB60F9211242F933F934F935F9340
:102CF0006F937F938F939F93AF93BF93EF93FF93C4
:102D00008091B900887F803609F44AC0F0F5883296
:102D100009F4A7C018F5803109F49BC0B8F48823E2
:102D200009F4F9C0883009F494C0FF91EF91BF9184
:102D3000AF919F918F917F916F915F914F913F9153
:102D40002F910F900FBE0F901F901895883109F4A6
:102D500088C0803251F78093290214C0803409F46E
:102D60009DC040F48033B9F38833F9F6809329028B
:102D700085ECB0C0803509F485C0883509F496C06B
:102D8000883499F60E949515D0CF883909F48CC003
:102D900038F5883729F050F4883611F0803729F655
:102DA00083E080932B021092FF0157C0883809F40A
:102DB0007BC0803919F0803809F0B7CF8091FF01CE
:102DC000803208F071C0E091FF0181E08E0F8093A6
:102DD000FF018091BB00F0E0E152FE4F80833DC0D7
:102DE000803B39F0E0F4803A09F479C0883A09F080
:102DF0009CCF84E080932B021092DE011092DD01C3
:102E0000E0910102F091020209958091DD018111AA
:102E10000FC081E08093DD011092BD0109C0803CAC
:102E200009F4A6CF883C09F4A3CF883B09F07DCFF5
:102E3000E091DE0181E08E0F8093DE01F0E0E3544B
:102E4000FE4F80818093BB009091DE018091DD0177
:102E500029C0809126028093BB0085EC8093BC0042
:102E600064CF9091280280912702981758F5E0913D
:102E7000280281E08E0F80932802F0E0EB5FFD4F87
:102E80008081E9CFE091280281E08E0F80932802B3
:102E90008091BB00F0E0EB5FFD4F808390912802B2
:102EA000809127029817C8F285E8D8CFE0912802D0
:102EB00081E08E0F809328028091BB00F0E0EB5FF1
:102EC000FD4F808380912A0281115CCF81E0809345
:102ED000250284EA8093BC0010922B0226CF85EC59
:102EE0008093BC0010922B028091FF01803230F45D
:102EF000E091FF01F0E0E152FE4F10826091FF018E
:102F000070E0E0910302F09104028FED91E00995E9
:102F10001092FF010ACF1092290234CFCF92DF9294
:102F2000EF92FF920F931F93E82FF92F05C00150E6
:102F300011092109310961F1908196239417B9F3A0
:102F400005C0015011092109310911F19081962321
:102F50009413F7CFC12CD12CE12CF12C0AC08FEFA8
:102F6000C81AD80AE80AF80A0C151D052E053F05EF
:102F700079F080818623841791F36C2D7D2D8E2D21
:102F80009F2D1F910F91FF90EF90DF90CF900895AC
:102F900060E070E080E090E01F910F91FF90EF9073
:102FA000DF90CF900895E4E7F2E01382128248EEBA
:102FB00053E060E070E044835583668377838AE062
:102FC00091E09183808385EC90E09587848784EC01
:102FD00090E09787868780EC90E0918B808B81ECE6
:102FE00090E0938B828B82EC90E0958B848B86ECC7
:102FF00090E0978B868B118E128E138E148EA1E12A
:10300000B3E013961C921E92129714964D935D9303
:103010006D937C9317978CE191E011969C938E931E
:10302000EDE1F3E01382128220E830E0358324835F
:1030300080E490E097838683318720879387828717
:10304000168A158614861786168681E0858B848BF2
:103050002FEF3FEF338B228B318B208B878B108EA2
:10306000128E118E8EE291E091838083148E138EE6
:10307000B68FA58F10A2178E8FEF84A385A386A38A
:1030800087A380A780E89AE1A6E0B0E085AB96AB85
:10309000A7ABB0AF80EA96E8A1E0B0E081AF92AF15
:1030A000A3AFB4AF80E586AF17AE0895789484B52A
:1030B000826084BD84B5816084BD85B5826085BD34
:1030C00085B5816085BD80916E00816080936E00C2
:1030D00010928100809181008260809381008091B4
:1030E0008100816080938100809180008160809365
:1030F00080008091B10084608093B1008091B00025
:1031000081608093B00080917A00846080937A001F
:1031100080917A00826080937A0080917A00816049
:1031200080937A0080917A00806880937A00109270
:10313000C100E0918402F091850282E08083E091F9
:103140008002F09181021082E0918202F09183026C
:103150008FEC808310928C02E0918802F0918902BA
:1031600086E08083E0918602F09187028081806111
:103170008083E0918602F09187028081886080835D
:10318000E0918602F0918702808180688083E091DF
:103190008602F091870280818F7D808380913C033D
:1031A00090913D03892B11F10E942A142091230351
:1031B0003091240380912103909122032132310523
:1031C0000CF007C1B9016052710977FF02C06F5F4F
:1031D0007F4F759567958357910997FD019600E29A
:1031E00010E023E730E04AE855E006C120912303D0
:1031F00030912403C901079697FD0796B3E0959592
:103200008795BA95E1F72091210330912203AC0113
:10321000429FC001439F900D529F900D11240E9428
:10322000FF2090933D0380933C03892B09F0BCCF92
:103230000E942A1481E0809331038093320381E05D
:1032400090E09093300380932F0390932E0380930C
:103250002D0310922A031092290310922C0310922E
:103260002B030E94A012109232021092310210928F
:103270007102109270020E94DE0F81E596E0909339
:1032800002028093010282E596E09093040280930B
:1032900003020E942A140E94A01260E089E00E94AA
:1032A000C90561E081E00E94C90560E082E00E94FA
:1032B000C90561E088E00E94C905412C512C38EC19
:1032C000632E32E4732E44E1E42EF12C58E2C52E35
:1032D000D12CD1E0C2E0D093730258E45093720233
:1032E000109271021092700260E081E193E00E94FE
:1032F000731081E193E00E94A2100E94FA054B0135
:103300005C0180912B0281115AC2D0932B02D09381
:103310002A028FEF8093290210922802D09327026D
:10332000D0932602809126028069809326028091A4
:103330002502813009F095C3109225020E94FA05FA
:103340004B015C01809126028093BB0080912D028D
:1033500090912E02A0912F02B0913002892B8A2BDE
:103360008B2BA1F00E94FA0500912D0210912E02E4
:1033700020912F0230913002681979098A099B093E
:10338000061717072807390708F43AC28091BC00CE
:1033900083FDD8CF85EC8093BC000E94FA054B01D9
:1033A0005C0180912B02813009F45DC38091280279
:1033B000823008F07AC380912802A5E0B2E0E3E30E
:1033C000F2E090E0981709F420C22D9121939F5FBD
:1033D000F9CFB9016054710977FF02C06F5F7F4F69
:1033E000759567958255910997FD019600E410E067
:1033F00022E530E04AE657E0959587950E94A80EB1
:1034000082E080933F0380913A0390913B03892BA4
:1034100009F4DFC08CE380933E03109232021092D5
:10342000310210927102109270020E94DE0F81E54B
:1034300096E0909302028093010282E596E09093D9
:103440000402809303028091450387FD1EC061E062
:103450000E94C90561E0809145030E949B0561E0DF
:1034600070E080E090E00E941F0660E080914503DC
:103470000E949B056AE070E080E090E00E941F06D9
:1034800061E0809145030E949B0580913A039091F1
:103490003B03892B09F45CC1209152033091530303
:1034A000409154035091550360E074E284EF90E042
:1034B0000E94D7202051310941095109569547955D
:1034C000379527952093B80064E086E895E00E9440
:1034D00089116091230361508DE193E00E943E12B7
:1034E00064E082E895E00E94891180913F0364E1E5
:1034F000813009F460E18DE193E00E943E1264E0C6
:103500008EE795E00E9489118FE880935A0380919D
:103510002103909122038038910509F032C18091F6
:103520002303909124038034910509F03AC18091DE
:103530003F03813009F423C18FEC80935A03C2E129
:103540006AED8DE193E00E943E126C2F8DE193E0D5
:103550000E943E1261E88DE193E00E943E1260916C
:103560005A038DE193E00E943E1269ED8DE193E0F4
:103570000E943E1280913F0361EF813009F462E2C4
:103580008DE193E00E943E1266E088E795E00E949C
:10359000891180913A0390913B03892B09F405C16D
:1035A000209156033091570340915803509159038D
:1035B00060E074E284EF90E00E94D720205131094E
:1035C0004109510956954795379527952093B8009D
:1035D0002FCE61E0809143030E94C90561E0809194
:1035E00044030E94C90580914303082E000C990BE7
:1035F000FC01E85BF54FE491F0E0EE0FFF1FE25CA9
:10360000F54F2591349130934B0320934A03FC01ED
:10361000E45AF54FE491E093500380914403082E5F
:10362000000C990BFC01E85BF54FE491F0E0EE0F24
:10363000FF1FE25CF54FA591B491B0934D03A093A9
:103640004C03FC01E45AF54FE491E09351038C9153
:10365000E82BEC938091380390913903892B09F47E
:1036600034C0CFB7F89480910002811127C0E2E501
:10367000FAE08491E6E6FAE09491E82FF0E0EE0FAC
:10368000FF1FEC5CF54FA591B491EC91E92321F477
:1036900061E08AE00E949B0561E08AE00E94C90522
:1036A0008CB580618CBD8CB580648CBD61E08DE093
:1036B0000E94C90561E08BE00E94C905809100026B
:1036C0008F5F80930002CFBFBECE61E08091410347
:1036D0000E94C90561E0809142030E94C905809162
:1036E0004103082E000C990BFC01E85BF54FE491B7
:1036F000F0E0EE0FFF1FE25CF54F2591349130931F
:10370000470320934603FC01E45AF54FE491E0930C
:103710004E0380914203082E000C990BFC01E85BDC
:10372000F54FE491F0E0EE0FFF1FE25CF54FA5913D
:10373000B491B0934903A0934803FC01E45AF54FB8
:10374000E491E0934F038C91E095E823EC937BCEDA
:103750008091380390913903892B31F080915B037C
:1037600090915C030E94BE09E0914C03F0914D03DF
:10377000908180915103809589238083A5CE8FE924
:10378000DCCE8036910569F4809123039091240367
:10379000409739F480913F03813029F08FEA80937C
:1037A0005A03C2E0CDCE80E1FACFE0914C03F09114
:1037B0004D03808190915103892B808339CD809175
:1037C0002D0290912E02A0912F02B0913002892BF0
:1037D0008A2B8B2B09F495CD0E94FA0500912D02BE
:1037E00010912E0220912F02309130026819790930
:1037F0008A099B09061717072807390708F081CDA2
:1038000080912C020E94FC0F80E010923202809383
:10381000310281E193E00E942C10382E212C81E1AD
:1038200093E00E942C10B101682B792B24E0759550
:1038300067952A95E1F7072E000C880B990B0E94DB
:10384000B01F20E030E040E85DE30E946520609317
:103850006302709364028093650290936602E9E7C5
:10386000FAE08491E5E6FAE01491E1E5FAE00491EA
:10387000002309F41CC181110E947205E02FF0E0C1
:10388000EE0FFF1FE65DF54FA591B4918C911823C3
:1038900009F40DC16AE070E080E090E00E941F062C
:1038A00060E081E00E949B0561E088E00E949B054A
:1038B00065E070E080E090E00E941F0660E088E034
:1038C0000E949B058FE090E00197F1F7EEE5FAE0AA
:1038D0006491EAE4FAE08491E82FF0E0EE0FFF1F34
:1038E000E65DF54F8591949108E813E120E030E022
:1038F000462F0E948E17611571058105910529F0EB
:103900006F5F7F4F8F4F9F4F9F700E94AE1F6093DE
:103910005702709358028093590290935A029B0168
:10392000AC010E949C1E9B01AC0160E074E284E744
:1039300099E40E940D1F4B015C012FE434E54CEF2C
:1039400054E30E946520A50194010E94652020E0B7
:1039500030E040E850E40E94652020ED3FE049E47B
:1039600050E40E94652020ED3FE049E450E40E94CD
:1039700065209B01AC0160E070E080E89FE30E945D
:103980000D1F20E034E244E759E40E946520609373
:10399000530270935402809355029093560220E094
:1039A00030E0A90160915F02709160028091610234
:1039B000909162020E94602018160CF099C18090CC
:1039C0005B0290905C02A0905D02B0905E0220E0ED
:1039D00030E040E85FE3C501B4010E94081F811197
:1039E00095C00E942A1410922A0310922903109263
:1039F0002C0310922B03C0933103C093320362E671
:103A000071E08DE193E00E944C1410922A03109211
:103A10002903F0922C03E0922B0368E671E08DE11C
:103A200093E00E944C1410922A0310922903D09222
:103A30002C03C0922B036091570270915802809121
:103A4000590290915A029B01AC010E949C1EAB014D
:103A5000BC0122E08DE193E00E94A7140E94A01215
:103A6000EDC085EE98CC80912D0290912E02A09110
:103A70002F02B0913002892B8A2B8B2B09F491CC29
:103A80000E94FA0500912D0210912E0220912F0222
:103A900030913002681979098A099B0906171707BE
:103AA0002807390708F07DCCABCE82E086CC6AE0EF
:103AB00070E080E090E00E941F0661E081E00E94DB
:103AC0009B0540925F025092600260926102709288
:103AD000620220E030E040E85FE360915B027091B9
:103AE0005C0280915D0290915E020E949C1E609338
:103AF0005B0270935C0280935D0290935E0268ECBF
:103B000070E080E090E00E941F06CECE20E030E022
:103B100040E050E4C501B4010E94081F81113EC07D
:103B20000E942A1410922A031092290310922C0347
:103B300010922B03C0933103C093320360E771E00E
:103B40008DE193E00E944C1410922A0310922903F5
:103B5000F0922C03E0922B0366E771E08DE193E095
:103B60000E944C1410922A0310922903D0922C0325
:103B7000C0922B03409163025091640260916502F0
:103B80007091660222E08DE193E00E94A7146CE739
:103B900071E08DE193E00E944C1460CF20E030E0B2
:103BA00040E450E4C501B4010E94081F81113AC0ED
:103BB0000E942A1410922A031092290310922C03B7
:103BC00010922B03C0933103C09332036FE771E06F
:103BD0008DE193E00E944C1410922A031092290365
:103BE000F0922C03E0922B0365E871E08DE193E005
:103BF0000E944C1410922A0310922903D0922C0395
:103C0000C0922B034091530250915402609155028F
:103C10007091560222E08DE193E00E94A71460E9C2
:103C200071E0B7CF80E090E0A0E8BFE380935B0253
:103C300090935C02A0935D02B0935E0280905F025D
:103C400090906002A0906102B090620220E030E0AB
:103C5000A901C501B4010E94602018160CF04BC0E8
:103C600020E030E040E85FE3C501B4010E949B1E04
:103C700060935F027093600280936102909362028E
:103C800063E971E084E792E00E944C1469E971E015
:103C900084E792E00E944C146091570270915802A0
:103CA0008091590290915A029B01AC010E949C1E86
:103CB000AB01BC0122E084E792E00E94A71469E90D
:103CC00071E084E792E00E944C146AE070E080E0CA
:103CD00090E00E941F0640E050E0452B09F4FBCA2B
:103CE0000E94BD06882309F4F4CA0E940000F1CAAC
:103CF0000E942A14B3CE10925F02109260021092BA
:103D000061021092620210925B0210925C021092A9
:103D10005D0210925E02B4CF8EE291E090931E039A
:103D200080931D0380913C0390913D03009711F017
:103D30000C949B2108955058BB27AA270E94B31EBC
:103D40000C9426200E94182038F00E941F2020F09A
:103D500039F49F3F19F426F40C9415200EF4E095E5
:103D6000E7FB0C940F20E92F0E94372058F3BA1775
:103D7000620773078407950720F079F4A6F50C9481
:103D800059200EF4E0950B2EBA2FA02D0B01B9018E
:103D900090010C01CA01A0011124FF27591B99F0C1
:103DA000593F50F4503E68F11A16F040A22F232FCD
:103DB000342F4427585FF3CF469537952795A7951D
:103DC000F0405395C9F77EF41F16BA0B620B730BC4
:103DD000840BBAF09150A1F0FF0FBB1F661F771F35
:103DE000881FC2F70EC0BA0F621F731F841F48F4EA
:103DF000879577956795B795F7959E3F08F0B0CF73
:103E00009395880F08F09927EE0F97958795089559
:103E10000E94EB1F08F481E008950E94211F0C947A
:103E200026200E941F2058F00E94182040F029F4FC
:103E30005F3F29F00C940F2051110C945A200C94E0
:103E400015200E94372068F39923B1F3552391F38D
:103E5000951B550BBB27AA2762177307840738F0F9
:103E60009F5F5F4F220F331F441FAA1FA9F335D056
:103E70000E2E3AF0E0E832D091505040E695001C0A
:103E8000CAF72BD0FE2F29D0660F771F881FBB1FC4
:103E9000261737074807AB07B0E809F0BB0B802DA2
:103EA000BF01FF2793585F4F3AF09E3F510578F0CE
:103EB0000C940F200C945A205F3FE4F3983ED4F307
:103EC000869577956795B795F7959F5FC9F7880FA2
:103ED000911D9695879597F90895E1E0660F771FF4
:103EE000881FBB1F621773078407BA0720F0621B85
:103EF000730B840BBA0BEE1F88F7E09508950E94B0
:103F00003F2088F09F5798F0B92F9927B751B0F00C
:103F1000E1F0660F771F881F991F1AF0BA95C9F74D
:103F200014C0B13091F00E945920B1E008950C9472
:103F30005920672F782F8827B85F39F0B93FCCF325
:103F4000869577956795B395D9F73EF490958095CA
:103F5000709561957F4F8F4F9F4F0895E89409C0EA
:103F600097FB3EF490958095709561957F4F8F4FAC
:103F70009F4F9923A9F0F92F96E9BB279395F695C2
:103F8000879577956795B795F111F8CFFAF4BB0F40
:103F900011F460FF1BC06F5F7F4F8F4F9F4F16C0A4
:103FA000882311F096E911C0772321F09EE8872F2E
:103FB000762F05C0662371F096E8862F70E060E0EA
:103FC0002AF09A95660F771F881FDAF7880F969563
:103FD000879597F90895990F0008550FAA0BE0E807
:103FE000FEEF16161706E807F907C0F012161306BB
:103FF000E407F50798F0621B730B840B950B39F4FB
:104000000A2661F0232B242B252B21F408950A2660
:1040100009F4A140A6958FEF811D811D089597F9A0
:104020009F6780E870E060E008959FEF80EC08955E
:1040300000240A9416161706180609060895002487
:104040000A9412161306140605060895092E039401
:10405000000C11F4882352F0BB0F40F4BF2B11F475
:1040600060FF04C06F5F7F4F8F4F9F4F089557FDD4
:104070009058440F551F59F05F3F71F04795880FD6
:1040800097FB991F61F09F3F79F08795089512166D
:1040900013061406551FF2CF4695F1DF08C0161619
:1040A00017061806991FF1CF8695710561050894CA
:1040B0000895E894BB2766277727CB0197F90895E1
:1040C0000E94EB1F08F48FEF08950E9478200C9453
:1040D00026200E94182038F00E941F2020F09523EF
:1040E00011F00C940F200C94152011240C945A20DC
:1040F0000E94372070F3959FC1F3950F50E0551F34
:10410000629FF001729FBB27F00DB11D639FAA272C
:10411000F00DB11DAA1F649F6627B00DA11D661F7B
:10412000829F2227B00DA11D621F739FB00DA11D9C
:10413000621F839FA00D611D221F749F3327A00D56
:10414000611D231F849F600D211D822F762F6A2FF2
:1041500011249F5750409AF0F1F088234AF0EE0F57
:10416000FF1FBB1F661F771F881F91505040A9F784
:104170009E3F510580F00C940F200C945A205F3F15
:10418000E4F3983ED4F3869577956795B795F795C0
:10419000E7959F5FC1F7FE2B880F911D9695879538
:1041A00097F908950E94EB1F880B990B0895A1E2DF
:1041B0001A2EAA1BBB1BFD010DC0AA1FBB1FEE1FA1
:1041C000FF1FA217B307E407F50720F0A21BB30BEC
:1041D000E40BF50B661F771F881F991F1A9469F768
:1041E00060957095809590959B01AC01BD01CF01C4
:1041F0000895EE0FFF1F0590F491E02D09940F93A1
:104200001F93CF93DF938230910510F482E090E00A
:10421000E0915F03F091600330E020E0B0E0A0E0C7
:10422000309799F42115310509F44AC0281B390B40
:1042300024303105D8F58A819B816115710589F19A
:10424000FB0193838283FE0111C040815181028171
:10425000138148175907E0F04817590799F4109748
:1042600061F012960C93129713961C933296CF011D
:10427000DF91CF911F910F91089500935F031093E9
:104280006003F4CF2115310551F04217530738F080
:10429000A901DB019A01BD01DF01F801C1CFEF01E6
:1042A000F9CF9093600380935F03CDCFFE01E20FBF
:1042B000F31F819391932250310939832883D7CFFB
:1042C00020915D0330915E03232B41F42091020184
:1042D0003091030130935E0320935D032091000130
:1042E000309101012115310541F42DB73EB74091C0
:1042F000040150910501241B350BE0915D03F09101
:104300005E03E217F307A0F42E1B3F0B28173907B3
:1043100078F0AC014E5F5F4F2417350748F04E0F21
:104320005F1F50935E0340935D03819391939FCFF2
:10433000F0E0E0E09CCFCF93DF930097E9F0FC0141
:10434000329713821282A0915F03B0916003ED0156
:1043500030E020E01097A1F420813181820F931F7B
:1043600020915D0330915E032817390709F061C081
:10437000F0935E03E0935D03DF91CF910895EA012E
:10438000CE17DF07E8F54A815B819E014115510593
:10439000B1F7E901FB83EA8349915991C40FD51F15
:1043A000EC17FD0761F4808191810296840F951FBF
:1043B000E90199838883828193819B838A83F0E0DA
:1043C000E0E012968D919C9113970097B9F52D918D
:1043D0003C911197CD010296820F931F20915D03AE
:1043E00030915E032817390739F6309751F510924E
:1043F000600310925F03B0935E03A0935D03BCCF94
:10440000D383C28340815181840F951FC817D90778
:1044100061F44E5F5F4F88819981480F591F518326
:1044200040838A819B81938382832115310509F022
:10443000B0CFF0936003E0935F039ECFFD01DC01FA
:10444000C0CF13821282D7CF81E090E0F8940C9411
:104450003022DC0101C06D9341505040E0F70895D7
:1044600015E0C6E4D5E004C0FE010E94F9202196C3
:0A447000C734D107C9F7F894FFCF55
:10447A0000006103800000000000F3065306800676
:10448A004007B1068F06A30600000000731046100D
:10449A00271471053F102C101D1000000000FC0BA2
:1044AA0053062714B60F07097105A10E790E950E4A
:1044BA00890E090F7105C209D1137708C008C20D08
:1044CA00A50D2D0DCE0C6E616E00696E66006F76BD
:1044DA006600506167653100506572696F643A0021
:1044EA0050616765320054656D703A002E43005082
:1044FA006167653300696E64756374616E63650034
:0C450A0075680070756C7365000D0A0088
:00000001FF
